:020000040000FA
:0400000007EF00F016
:100008005A82A8ED10F0E5EF13F0510E036E2E0E94
:10001800046E800E056EAFEC13F0C60E036E2F0E45
:10002800046EC00E056EAFEC13F0C60E036E2F0EF5
:10003800046ECC0E056EAFEC13F0800E026E000E4F
:10004800F8EC15F05550D8B42CEF00F02EEF00F076
:1000580031EF00F0000E556EF28A000E3EEC13F000
:10006800436E4328D8A43BEF00F03DEF00F05EEF6D
:1000780000F00001B051B111B211B311D8B447EF7B
:1000880000F049EF00F05EEF00F0020E45604FEF20
:1000980000F051EF00F054EF00F0452A56EF00F061
:1000A800000E456E000EB06F000EB16F000EB26FFD
:1000B800000EB36F4550D8A464EF00F066EF00F06F
:1000C800F3EF00F04328D8A46CEF00F06EEF00F0D7
:1000D800AFEF00F03550361037103810D8B477EF3E
:1000E80000F079EF00F0AFEF00F0000196510A0D33
:1000F800F3509725F00F446E3B0E446086EF00F0F6
:1001080088EF00F08BEF00F0442A8DEF00F0000E2E
:10011800446E44C007F0086A000E0A6E0A0E096EA3
:1001280079EC11F00750300F0001966F44C001F0D0
:10013800026A000E046E0A0E036EDBEC11F0015029
:10014800300F0001976F000E356E000E366E000EF0
:10015800376E000E386E5850D8B4B5EF00F0B7EFD0
:1001680000F0C3EF00F0CA0E0F6E200E13EC16F06D
:10017800CB0E0F6E200E13EC16F0CFEF00F0CA0E68
:100188000F6E0001965113EC16F0CB0E0F6E0001A6
:10019800975113EC16F0C90E0F6E3A0E13EC16F0C9
:1001A800C70E0F6E0001935113EC16F0C80E0F6EB8
:1001B8000001945113EC16F0C60E0F6E3A0E13ECB4
:1001C80016F0C40E0F6E0001905113EC16F0C50E18
:1001D8000F6E0001915113EC16F01CEF02F045046C
:1001E800D8A4F9EF00F0FBEF00F088EF01F0432806
:1001F800D8A401EF01F003EF01F044EF01F035500E
:10020800361037103810D8B40CEF01F00EEF01F0AB
:1002180044EF01F0000193510A0DF3509425F00FBB
:10022800446E3B0E44601BEF01F01DEF01F020EF20
:1002380001F0442A22EF01F0000E446E44C007F09A
:10024800086A000E0A6E0A0E096E79EC11F0075062
:10025800300F0001936F44C001F0026A000E046E73
:100268000A0E036EDBEC11F00150300F0001946FA1
:10027800000E356E000E366E000E376E000E386EAC
:10028800CA0E0F6E0001965113EC16F0CB0E0F6ECE
:100298000001975113EC16F0C90E0F6E3A0E13ECCD
:1002A80016F05850D8B45BEF01F05DEF01F069EF3C
:1002B80001F0C70E0F6E200E13EC16F0C80E0F6E6D
:1002C800200E13EC16F075EF01F0C70E0F6E00014B
:1002D800935113EC16F0C80E0F6E0001945113ECF5
:1002E80016F0C60E0F6E3A0E13EC16F0C40E0F6E13
:1002F8000001905113EC16F0C50E0F6E00019151DC
:1003080013EC16F01CEF02F0020E4518D8A48FEF7C
:1003180001F091EF01F01CEF02F04328D8A497EF09
:1003280001F099EF01F0DAEF01F03550361037108F
:100338003810D8B4A2EF01F0A4EF01F0DAEF01F021
:10034800000190510A0DF3509125F00F446E170EDD
:100358004460B1EF01F0B3EF01F0B6EF01F0442AC9
:10036800B8EF01F0000E446E44C007F0086A000EB2
:100378000A6E0A0E096E79EC11F00750300F000171
:10038800906F44C001F0026A000E046E0A0E036EFC
:10039800DBEC11F00150300F0001916F000E356E4B
:1003A800000E366E000E376E000E386ECA0E0F6ED7
:1003B8000001965113EC16F0CB0E0F6E0001975109
:1003C80013EC16F0C90E0F6E3A0E13EC16F0C70EAA
:1003D8000F6E0001935113EC16F0C80E0F6E00015A
:1003E800945113EC16F0C60E0F6E3A0E13EC16F07D
:1003F8005850D8B402EF02F004EF02F010EF02F008
:10040800C40E0F6E200E13EC16F0C50E0F6E200EE4
:1004180013EC16F01CEF02F0C40E0F6E00019051A1
:1004280013EC16F0C50E0F6E0001915113EC16F087
:10043800050E4318D8A423EF02F025EF02F0A6EF2B
:1004480002F035C011F036C012F037C013F038C0D2
:1004580014F0352A000E3622372238221450131091
:100468000BE1E90E115C030E1258D8A03EEF02F022
:1004780040EF02F0A6EF02F0000E4D6E000E466E41
:10048800000E4B6E000E496E010E566E010E556E33
:10049800A60E016E000E026EC60E036E2F0E046EBF
:1004A80032EC15F091C011F0D00E11260F0E111676
:1004B80000019039F00B1110026E020EF8EC15F0E5
:1004C80094C011F0D00E11260F0E111600019339A9
:1004D800F00B1110026E010EF8EC15F097C011F038
:1004E800D00E11260F0E111600019639F00B1110BF
:1004F8007F0B026E000EF8EC15F0000E356E000E44
:10050800366E000E376E000E386EF29A000E506E80
:10051800000E4F6E000E4E6E000E586E000ED76E17
:10052800060ED66EF294000E0001C36F000EC26F65
:10053800000EB46F000EB56F000EB66F000EB76FE9
:10054800F7EF02F0060E4318D8A4ADEF02F0AFEFB4
:1005580002F0F7EF02F0B0C011F0B1C012F0B2C073
:1005680013F0B3C014F00001B02B000EB123B22376
:10057800B323145013100BE1E90E115C030E12584B
:10058800D8A0C9EF02F0CBEF02F0F7EF02F0010EAE
:10059800556EF29A000E506E000E4F6E000E4E6EA3
:1005A800000E586E000ED76E060ED66EF294000E30
:1005B800C36F000EC26F000EB46F000EB56F000E51
:1005C800B66F000EB76F000EB06F000EB16F000E61
:1005D800B26F000EB36F000E466E000E4B6E000E2B
:1005E800496E010E566E12000C6E030E4264FFEF48
:1005F80002F001EF03F0ECEF04F0080E4218D8A463
:1006080008EF03F00AEF03F07DEF04F0C90E016E66
:10061800000E026EC40E036E000E046E79EC13F029
:1006280001500210D8A41BEF03F01DEF03F013EFE5
:1006380004F0000E3EEC13F00B6ED90E036E2E0E76
:10064800046E800E056EAFEC13F0C80E036E2E0E0E
:10065800046EC00E056EAFEC13F0050E0B18D8A48F
:1006680038EF03F03AEF03F0DFEF03F00001BA517F
:10067800096EBB510A6EBA4BBB2B0ABE4DEF03F095
:10068800D10E095C070E0A58D8A04DEF03F04FEFC2
:1006980003F0DFEF03F0C951D00F026E340E12ECF5
:1006A80015F00001CA51D00F026E350E12EC15F08C
:1006B8000001CB51D00F026E360E12EC15F000017E
:1006C800CC51D00F026E370E12EC15F0000E466EAC
:1006D800000E4B6E000E496E010E566E000E3F6EF8
:1006E800000E3E6E000E426E000E4C6E000E4D6EF9
:1006F800000E0001BB6F000EBA6FA60E016E000E51
:10070800026EC60E036E2F0E046E32EC15F0A00EAC
:10071800016E000E026EC60E036E2F0E046E32ECD2
:1007280015F09A0E016E000E026EC60E036E2F0EA5
:10073800046E32EC15F0FB0E036E2E0E046E800E66
:10074800056EAFEC13F0840E036E2E0E046EC00E11
:10075800056EAFEC13F0000E506E000ED76E060E4D
:10076800D66EF294000E0001B46F000EB56F000E45
:10077800B66F000EB76FF28A5050D8B4C6EF03F0C8
:10078800C8EF03F0C0EF03F0F29A000E506E000EAF
:10079800586E000ED76E060ED66EF294000E00014B
:1007A800C36F000EC26F000EB46F000EB56F000E5F
:1007B800B66F000EB76F060E0B18D8A4E6EF03F05D
:1007C800E8EF03F0EAEF04F00001B851096EB951FF
:1007D8000A6EB84BB92B0ABEFBEF03F0D10E095CC9
:1007E800070E0A58D8A0FBEF03F0FDEF03F0EAEF7D
:1007F80004F0000E466E000E4B6E000E496E010EA0
:10080800566E000E426EA60E016E000E026EC60EE9
:10081800036E2F0E046E32EC15F049EF05F0950EBD
:10082800036E2E0E046E800E056EAFEC13F0EA0E0A
:10083800036E2E0E046EC00E056EAFEC13F0000EA4
:10084800426EA60E016E000E026EC60E036E2F0ECD
:10085800046E32EC15F0A00E016E000E026EC60E8C
:10086800036E2F0E046E32EC15F09A0E016E000E18
:10087800026EC60E036E2F0E046E32EC15F0000EDB
:10088800506E000ED76E060ED66EF294000E000162
:10089800B46F000EB56F000EB66F000EB76FF28A18
:1008A8005050D8B45AEF04F05CEF04F054EF04F061
:1008B800F29A000E506E000E586E000ED76E060E9D
:1008C800D66EF294000E0001C36F000EC26F000EC8
:1008D800B46F000EB56F000EB66F000EB76F000E46
:1008E800466E000E4B6E000E496E010E566E49EFB5
:1008F80005F0B70E036E2E0E046E800E056EAFEC7B
:1009080013F0BE0E036E2F0E046EC40E056EAFEC10
:1009180013F0050E0C18D8A494EF04F096EF04F029
:10092800B7EF04F0C00E4224D96EDA6A000EDA225C
:10093800300EDF6EC10E4224D96EDA6A000EDA225A
:10094800DF6A960E4224D96EDA6A000EDA222A0E7F
:10095800DF6E970E4224D96EDA6A000EDA22DF6A59
:10096800422AE0EF04F0060E0C18D8A4BEEF04F0FB
:10097800C0EF04F0E0EF04F0C00E4224D96EDA6A4A
:10098800000EDA22310EDF6EC10E4224D96EDA6A09
:10099800000EDA22DF6A960E4224D96EDA6A000E59
:1009A800DA222A0EDF6E970E4224D96EDA6A000E1A
:1009B800DA22DF6AB4EF04F09A0E036E000E046EBA
:1009C800C00E056EAFEC13F049EF05F049EF05F0E6
:1009D8002E0E036E2F0E046E800E056EAFEC13F014
:1009E800BE0E036E2F0E046EC40E056EAFEC13F030
:1009F800050E0C18D8A403EF05F005EF05F01FEF5E
:100A080005F0C90E4224D96EDA6A000EDA22300ED9
:100A1800DF6EA00E4224D96EDA6A000EDA222A0EA0
:100A2800DF6EA10E4224D96EDA6A000EDA22DF6A7E
:100A3800422A41EF05F0060E0C18D8A426EF05F05F
:100A480028EF05F041EF05F0C90E4224D96EDA6AA5
:100A5800000EDA22310EDF6EA00E4224D96EDA6A59
:100A6800000EDA222A0EDF6EA10E4224D96EDA6A4F
:100A7800000EDA22DF6A1CEF05F0A00E036E000EEE
:100A8800046EC00E056EAFEC13F01200296E000E56
:100A98003EEC13F04A6E060E4A18D8A456EF05F03D
:100AA80058EF05F076EF05F00001BE4BBF2BD10ED5
:100AB800BE5D070EBF59D8A064EF05F066EF05F0DC
:100AC80076EF05F0000EBF6F000EBE6F000E466E8B
:100AD800000E4B6E000E496E010E566E000E4D6EE6
:100AE8002EEF07F04604D8B47CEF05F07EEF05F052
:100AF80095EF05F0050E4A18D8A485EF05F087EFA5
:100B080005F0BAEF06F00001C04BC12BD10EC05D55
:100B1800070EC159D8A093EF05F095EF05F0BAEF8D
:100B280006F0330E8AEC15F0476E000E0001C16F17
:100B3800000EC06F4950D8A4A4EF05F0A6EF05F049
:100B48007AEF06F0010E466E4750D8B4AEEF05F0C6
:100B5800B0EF05F02EEF06F04604D8A4B6EF05F086
:100B6800B8EF05F02EEF06F0000E3EEC13F02A6EFB
:100B78007F0E036E2F0E046E800E056EAFEC13F021
:100B8800060E2A18D8A4CBEF05F0CDEF05F0E9EF53
:100B980005F00001BC4BBD2BD10EBC5D070EBD5945
:100BA800D8A0D9EF05F0DBEF05F0E9EF05F0000E6E
:100BB800466E000E4B6E000E496E010E566E000E0C
:100BC8004D6E000EBD6F000EBC6F2A28D8A4EFEF43
:100BD80005F0F1EF05F018EF06F00001BC51BD116A
:100BE800D8B4F9EF05F0FBEF05F018EF06F0FF0EAB
:100BF8004724246E256AFF0E25224850266E276A50
:100C08002450265C2750800A286E2550800A2858D0
:100C1800D8B011EF06F013EF06F018EF06F0000E4B
:100C2800BD6F000EBC6F482A050E2918D8A41FEF07
:100C380006F021EF06F02AEF06F04850D8B427EF67
:100C480006F029EF06F02AEF06F0480626EC0CF02D
:100C58002EEF07F0620E036E2E0E046E800E056EE8
:100C6800AFEC13F0400E036E2E0E046EC00E056E30
:100C7800AFEC13F0000E506E000ED76E060ED66E57
:100C8800F294000E0001B46F000EB56F000EB66F3F
:100C9800000EB76FF28A5050D8B455EF06F057EFF0
:100CA80006F04FEF06F0F29A000E506E000E586EE6
:100CB800000ED76E060ED66EF294000E0001C36FBA
:100CC800000EC26F000EB46F000EB56F000EB66F47
:100CD800000EB76F000E466E000E496E000E4B6E8A
:100CE800010E566E2EEF07F02EEF07F04904D8A438
:100CF80080EF06F082EF06F08EEF06F079EC12F046
:100D0800000E466E000E4B6E000E496E010E566EBA
:100D18002EEF07F0020E4918D8A495EF06F097EFCA
:100D280006F09BEF06F033EC12F084EF06F0030EAA
:100D38004918D8A4A2EF06F0A4EF06F0AAEF06F02F
:100D4800010E466E09EC00F02EEF07F0040E49186C
:100D5800D8A4B1EF06F0B3EF06F078EF06F0010E75
:100D6800466E2950F8EC02F02EEF07F04A28D8A476
:100D7800C0EF06F0C2EF06F0F0EF06F00001BE513A
:100D8800BF11D8B4CAEF06F0CCEF06F0F0EF06F0CA
:100D9800000EBF6F000EBE6F5650D8A4D6EF06F0F7
:100DA800D8EF06F0E3EF06F0030E4B60DEEF06F037
:100DB800E0EF06F0E5EF06F04B2AE5EF06F0000E4F
:100DC800566E040E4960EBEF06F0EDEF06F024EFE7
:100DD80007F0492A24EF07F04A28D8A4F6EF06F0CE
:100DE800F8EF06F024EF07F00001C051C111D8B4A4
:100DF80000EF07F002EF07F024EF07F0000EC16FD5
:100E0800000EC06F5650D8B40CEF07F00EEF07F085
:100E180019EF07F04B50D8B414EF07F016EF07F0AE
:100E28001BEF07F04B061BEF07F0010E566E4950FB
:100E3800D8B421EF07F023EF07F024EF07F04906B5
:100E4800860E116E000E126E4BC013F056C014F0D1
:100E580016EC11F012001250800B1F6E1250122463
:100E6800266E11AE3AEF07F03CEF07F03DEF07F0C2
:100E780026802650D8B443EF07F045EF07F05AEF25
:100E880007F02628D8A44BEF07F04DEF07F055EFF1
:100E980007F0000E0F6E000E106E000E116E000EA1
:100EA800126E118E000E126E62EF07F0000E0F6EBA
:100EB800000E106E000E116E000E126E1650800B92
:100EC8001F1A16501624276E15AE6DEF07F06FEF38
:100ED80007F070EF07F027802750D8B476EF07F0B7
:100EE80078EF07F08DEF07F02728D8A47EEF07F0FA
:100EF80080EF07F088EF07F0000E136E000E146EF7
:100F0800000E156E000E166E158E000E166E95EFFD
:100F180007F0000E136E000E146E000E156E000E14
:100F2800166E1350141015101610D8A49EEF07F063
:100F3800A0EF07F0B8EF07F0000E0F6E000E106E6E
:100F4800000E116E000E126E800E11127F0E12121C
:100F58001F5012120FC00FF010C010F011C011F086
:100F680012C012F0FBEF08F02650D8A4BEEF07F02D
:100F7800C0EF07F0CAEF07F0000E0F6E000E106EFC
:100F8800000E116E000E126EFBEF08F0275026C0FF
:100F980017F0186A175E000E185A7F0E1724206E75
:100FA800000E1820216E0FC01BF010C01CF011C0DD
:100FB8001DF012C01EF0000E0F6E000E106E000E17
:100FC800116E000E126E000E226E000E236E000EC1
:100FD800246E000E256E000E276E2BEF08F02750AA
:100FE800D8B4F9EF07F0FBEF07F012EF08F0D8904C
:100FF8001B361C361D361E36D8900F361036113665
:10100800123625AE0AEF08F00CEF08F00DEF08F0E5
:101018000F80D890223623362436253613501B5C91
:1010280014501C5815501D5816501E58D8A01FEFA4
:1010380008F021EF08F02AEF08F0258C13501B5E0A
:1010480014501C5A15501D5A16501E5A272A190E8C
:10105800276431EF08F033EF08F0F3EF07F01B5087
:101068001C101D101E10D8B43CEF08F03EEF08F01D
:1010780056EF08F0228056EF08F0D8900F36103659
:101088001136123625AE4BEF08F04DEF08F04EEF53
:1010980008F00F80D89022362336243625362006CD
:1010A800D8A0210611AE5BEF08F05DEF08F041EF24
:1010B80008F0000E276E25AE64EF08F066EF08F022
:1010C8008AEF08F0FF0E2214176EFF0E2314186E15
:1010D800FF0E2414196E7F0E25141A6E175018105F
:1010E80019101A10D8B47BEF08F07DEF08F081EFE3
:1010F80008F0010E276E8AEF08F00FA086EF08F0BF
:1011080088EF08F08AEF08F07DEF08F02750D8B490
:1011180090EF08F092EF08F0B6EF08F0010E0F26F6
:10112800000E10221122122212A09DEF08F09FEF4C
:1011380008F0B6EF08F00FC017F010C018F011C093
:1011480019F012C01AF01A341A321932183217323A
:1011580017C00FF018C010F019C011F01AC012F023
:10116800204A212A21BEC1EF08F0215008E1202899
:10117800D8A0C1EF08F0C3EF08F0CEEF08F0000EDA
:10118800216E2068000E0F6E000E106E000E116E9C
:10119800000E126E21BEDBEF08F0215006E120049C
:1011A800D8B0D9EF08F0DBEF08F0E9EF08F0000E4F
:1011B800216E000E206E000E0F6E000E106E000ED7
:1011C800116E000E126E000E1F6E20C026F026A0B3
:1011D800F0EF08F0F2EF08F0F5EF08F0118EF6EFF7
:1011E80008F0119ED8902630126EACEF07F012006E
:1011F8002B6E040E3E183F10D8A405EF09F007EF38
:1012080009F018EF0AF04C50D8A40DEF09F00FEFD1
:1012180009F015EF09F0D30E046E000E056E18ECF8
:1012280014F04C04D8B41BEF09F01DEF09F030EFAF
:1012380009F0D30E016E000E026ECE0E036E000E84
:10124800046E79EC13F001500210D8A42EEF09F0C7
:1012580030EF09F049EF09F04C50D8A436EF09F007
:1012680038EF09F044EF09F0A60E016E000E026E89
:10127800C60E036E2F0E046E32EC15F0010E4C6E86
:101288002B504AEC05F0A9EF0AF0000E3F6E000E55
:101298003E6EA60E016E000E026EC60E036E2F0E77
:1012A800046E32EC15F054BE63EF09F0545009E1B6
:1012B800020E535CD8A063EF09F065EF09F09BEFCD
:1012C80009F05306D8A054060C0E036E2F0E046EB8
:1012D800800E056EAFEC13F09F0E036E2F0E046E9A
:1012E800C00E056EAFEC13F0CF0E0F6E5350300FDB
:1012F80013EC16F0F28A4F50D8B485EF09F087EF57
:1013080009F07FEF09F0F29A000ED76E060ED66E3E
:10131800000E506E000E4F6E000E0001B46F000EEE
:10132800B56F000EB66F000EB76FA9EF0AF0780E12
:10133800576E1D0E036E2F0E046E800E056EAFECF9
:1013480013F0D50E036E2F0E046EC00E056EAFECB3
:1013580013F0DF0E036E2F0E046ECC0E056EAFEC8D
:1013680013F0F28AFAEF09F05804D8A4BEEF09F096
:10137800C0EF09F0FAEF09F0000E586EC90E0F6EB3
:1013880057C007F0086A000E0A6E640E096E79EC01
:1013980011F00750300F13EC16F0CA0E0F6E000E46
:1013A800046E640E036E57C001F0026ADBEC11F0A4
:1013B80001C007F002C008F0000E0A6E0A0E096E9E
:1013C80079EC11F00750300F13EC16F0CB0E0F6EBE
:1013D80057C001F0026A000E046E0A0E036EDBECC1
:1013E80011F00150300F13EC16F057064E50D8B4D8
:1013F80000EF0AF002EF0AF0B8EF09F0F29A000ED7
:10140800D76E060ED66E000E506E000E4E6E000E93
:101418004F6E000E0001B46F000EB56F000EB66F70
:10142800000EB76FA9EF0AF0F28A5050D8B41FEF38
:101438000AF021EF0AF041EF0AF0F29A000ED76E97
:10144800060ED66E000E0001B46F000EB56F000ECA
:10145800B66F000EB76F000E506E000E4D6E000E88
:101468003F6E000E3E6EA60E016E000E026EC60E98
:10147800036E2F0E046E32EC15F0050E2B18D8A44F
:1014880048EF0AF04AEF0AF075EF0AF0000E000183
:10149800B46F000EB56F000EB66F000EB76FCE0EAC
:1014A8003E24D96E000E3F20DA6E300EDF6ECF0E6E
:1014B8003E24D96E000E3F20DA6EDF6AA60E3E2467
:1014C800D96E000E3F20DA6E2A0EDF6EA70E3E247C
:1014D800D96E000E3F20DA6EDF6A3E4A3F2A91EF4E
:1014E8000AF0060E2B18D8A47CEF0AF07EEF0AF05B
:1014F80091EF0AF0000E0001B46F000EB56F000EF8
:10150800B66F000EB76FCE0E3E24D96E000E3F2088
:10151800DA6E310EDF6E5BEF0AF02E0E036E2F0EC1
:10152800046E800E056EAFEC13F0A60E036E000E6F
:10153800046EC00E056EAFEC13F0BE0E036E2F0ED8
:10154800046EC40E056EAFEC13F01200346E4D0439
:10155800D8B4B1EF0AF0B3EF0AF0BCEF0AF00B0E03
:101568003418D8A4BAEF0AF0BCEF0AF073EF0BF006
:101578003404D8B4C2EF0AF0C4EF0AF0D6EF0AF088
:10158800020E3418D8B4CBEF0AF0CDEF0AF0D6EF3C
:101598000AF0030E3418D8A4D4EF0AF0D6EF0AF0F4
:1015A8006CEF0BF03404D8A4DCEF0AF0DEEF0AF09D
:1015B800E2EF0AF0070E416E29EF0BF0070E411813
:1015C800D8A4E9EF0AF0EBEF0AF001EF0BF0020EF6
:1015D8003418D8B4F2EF0AF0F4EF0AF0FDEF0AF08D
:1015E800030E3418D8A4FBEF0AF0FDEF0AF001EF60
:1015F8000BF0020E416E29EF0BF0020E3418D8A43E
:1016080008EF0BF00AEF0BF015EF0BF0060E416038
:1016180010EF0BF012EF0BF015EF0BF0412A29EF4A
:101628000BF0030E3418D8A41CEF0BF01EEF0BF0D0
:1016380029EF0BF0010E416424EF0BF026EF0BF0BD
:1016480029EF0BF0410629EF0BF0040EEFEC14F034
:1016580001C032F002C033F0140E136EAE0E146ED9
:10166800230E156E410E166E32C001F033C002F023
:10167800036A046A000E31EC0EF001C00FF002C0DC
:1016880010F003C011F004C012F02FEC07F00FC0E7
:1016980028F010C029F011C02AF012C02BF025EC58
:1016A80010F028C0ACF029C0ADF00001000EADBFAD
:1016B800FF0EAE6FAF6FBCEC12F0ACC006F0ADC061
:1016C80007F0AEC008F0AFC009F034500BEC0FF0D3
:1016D800010E4D6E3450FCEC08F025EF0CF02F0E87
:1016E800036E2E0E046E800E056EAFEC13F0E8EC60
:1016F80015F03404D8A483EF0BF085EF0BF089EFD5
:101708000BF0070E416ED0EF0BF0070E4118D8A46E
:1017180090EF0BF092EF0BF0A8EF0BF0020E3418DD
:10172800D8B499EF0BF09BEF0BF0A4EF0BF0030E7E
:101738003418D8A4A2EF0BF0A4EF0BF0A8EF0BF02D
:10174800020E416ED0EF0BF0020E3418D8A4AFEFA2
:101758000BF0B1EF0BF0BCEF0BF0060E4160B7EFEA
:101768000BF0B9EF0BF0BCEF0BF0412AD0EF0BF008
:10177800030E3418D8A4C3EF0BF0C5EF0BF0D0EF6D
:101788000BF0010E4164CBEF0BF0CDEF0BF0D0EF77
:101798000BF04106D0EF0BF04150020D740EF3240C
:1017A800D96E000EF420DA6EDECF11F0DDCF12F024
:1017B800B4EC15F0040EEFEC14F001C032F002C0E6
:1017C80033F0140E136EAE0E146E230E156E410E0A
:1017D800166E32C001F033C002F0036A046A000ECC
:1017E80031EC0EF001C00FF002C010F003C011F090
:1017F80004C012F02FEC07F00FC028F010C029F039
:1018080011C02AF012C02BF025EC10F028C0ACF063
:1018180029C0ADF00001000EADBFFF0EAE6FAF6F77
:10182800ACC011F0ADC012F0FEEC12F0ACC006F086
:10183800ADC007F0AEC008F0AFC009F034500BECF3
:101848000FF012004850020D600EF324D96E000EFE
:10185800F420DA6EDF508AEC15F0176EC00E0F6EAA
:1018680017C007F0086A000E0A6E0A0E096E79ECB6
:1018780011F00750300F13EC16F0C10E0F6E17C0A1
:1018880001F0026A000E046E0A0E036EDBEC11F022
:101898000150300F13EC16F0C20E0F6E3A0E13EC17
:1018A80016F04850020D600EF324D96E000EF42095
:1018B800DA6EDF50116E11288AEC15F0176EC30E20
:1018C8000F6E17C007F0086A000E0A6E0A0E096E3E
:1018D80079EC11F00750300F13EC16F0C40E0F6EB0
:1018E80017C001F0026A000E046E0A0E036EDBECEC
:1018F80011F00150300F13EC16F0C50E0F6E3A0EB2
:1019080013EC16F04850020D600EF324D96E000E49
:10191800F420DA6EDF50020F8AEC15F0176EC60E4F
:101928000F6E17C007F0086A000E0A6E0A0E096EDD
:1019380079EC11F00750300F13EC16F0C70E0F6E4C
:1019480017C001F0026A000E046E0A0E036EDBEC8B
:1019580011F00150300F13EC16F0C80E0F6E200E68
:1019680013EC16F04850020D600EF324D96E000EE9
:10197800F420DA6EDF50030F8AEC15F0176EC90EEB
:101988000F6E1750020D740EF324D96E000EF4205A
:10199800DA6EDECFF6FFDDCFF7FF0800F55013EC67
:1019A80016F0CA0E0F6E1750020D740EF324D96E7E
:1019B800000EF420DA6EDECF11F0DDCF12F0010E4A
:1019C8001126000E122211C0F6FF12C0F7FF080000
:1019D800F55013EC16F0CB0E0F6E200E13EC16F02C
:1019E8004850020D600EF324D96E000EF420DA6E12
:1019F800DF50040F8AEC15F0176ECC0E0F6E17C06F
:101A080007F0086A000E0A6E0A0E096E79EC11F0EA
:101A18000750300F13EC16F0CD0E0F6E17C001F003
:101A2800026A000E046E0A0E036EDBEC11F0015020
:101A3800300F13EC16F0CE0E0F6E200E13EC16F0CE
:101A4800CF0E0F6E200E13EC16F0000E136E000E64
:101A5800146E000E156E000E166E010E1326000E83
:101A680014221522162216BE46EF0DF01650151038
:101A78000BE1200E135C4E0E1458D8A046EF0DF063
:101A880048EF0DF031EF0DF01200000E226E4750B6
:101A9800D8A451EF0DF053EF0DF061EF0DF0CB0E20
:101AA800026E2F0E036E4AEC14F0FC0E026E2F0E1F
:101AB800036E4AEC14F030EF0EF0AF0E026E2F0EEC
:101AC800036E4AEC14F0FC0E026E2F0E036E4AEC05
:101AD80014F0000E216E27EF0EF022508AEC15F05C
:101AE800236E222A23C007F0086A000E0A6E0A0E27
:101AF800096E79EC11F00750300F116E23C001F018
:101B0800026A000E046E0A0E036EDBEC11F001503F
:101B1800300F126E3A0E136E22508AEC15F0236EB7
:101B2800222A23C007F0086A000E0A6E0A0E096E00
:101B380079EC11F00750300F146E23C001F0026ADF
:101B4800000E046E0A0E036EDBEC11F00150300F2C
:101B5800156E3A0E166E22508AEC15F0236E222A64
:101B680023C007F0086A000E0A6E0A0E096E79ECA7
:101B780011F00750300F176E23C001F0026A000EF3
:101B8800046E0A0E036EDBEC11F00150300F186E74
:101B9800200E196E22508AEC15F0236E222A23504B
:101BA800020D740EF324D96E000EF420DA6EDECF27
:101BB800F6FFDDCFF7FF0800F5CF1AF02350020D2E
:101BC800740EF324D96E000EF420DA6EDECF0FF017
:101BD800DDCF10F0010E0F26000E10220FC0F6FF09
:101BE80010C0F7FF0800F5CF1BF0200E1C6E225026
:101BF8008AEC15F0236E222A23C007F0086A000E2B
:101C08000A6E0A0E096E79EC11F00750300F1D6E3E
:101C180023C001F0026A000E046E0A0E036EDBECAC
:101C280011F00150300F1E6E000E206E110E026E64
:101C3800000E036E4AEC14F0FC0E026E2F0E036EBB
:101C48004AEC14F0212A4750215CD8A02EEF0EF060
:101C580030EF0EF071EF0DF01200096E0950D8B494
:101C680038EF0EF03AEF0EF05CEF0EF004BE41EFE5
:101C78000EF03FEF0EF05CEF0EF001C005F002C071
:101C880006F003C007F004C008F0051E061E071E74
:101C9800081E052A000E06220722082205C00BF09E
:101CA80006C00CF007C00DF008C00EF064EF0EF08F
:101CB80001C00BF002C00CF003C00DF004C00EF020
:101CC8000150021003100410D8A46DEF0EF06FEF4E
:101CD8000EF079EF0EF0000E016E000E026E000E8F
:101CE800036E000E046E0AEF0FF0960E0A6E83EF75
:101CF8000EF00A2AD8900E320D320C320B32000E3A
:101D08000B14056E000E0C14066E000E0D14076EF3
:101D1800FE0E0E14086E0550061007100810D8A401
:101D280098EF0EF09AEF0EF07DEF0EF0A8EF0EF0A0
:101D38000A2A010E0B26000E0C220D220E22D89024
:101D48000E320D320C320B32000E0B14056E000EE3
:101D58000C14066E000E0D14076EFF0E0E14086E9E
:101D68000550061007100810D8A4BDEF0EF0BFEFFD
:101D78000EF09CEF0EF0C7EF0EF00A06D8900B3667
:101D88000C360D360E360DBECCEF0EF0CEEF0EF043
:101D9800D6EF0EF0020E0A60D4EF0EF0D6EF0EF07A
:101DA800C1EF0EF00AB0DBEF0EF0DDEF0EF0DEEF64
:101DB8000EF00D9ED8900A320AC005F0066A076A2E
:101DC800086A05C008F0076A066A056A05500B121A
:101DD80006500C1207500D1208500E120950D8B4B4
:101DE800F8EF0EF0FAEF0EF002EF0FF004BE01EF7D
:101DF8000FF0FFEF0EF002EF0FF00E8E0BC001F0A8
:101E08000CC002F00DC003F00EC004F012000B6EFF
:101E18000B04D8B412EF0FF014EF0FF026EF0FF009
:101E2800020E0B18D8B41BEF0FF01DEF0FF026EFC2
:101E38000FF0030E0B18D8A424EF0FF026EF0FF0C5
:101E4800A0EF0FF0330E8AEC15F0476E0A0E4760CC
:101E580030EF0FF032EF0FF038EF0FF0472A47C09E
:101E680002F0330E12EC15F00A0E4018D8A43FEF1A
:101E78000FF041EF0FF047EF0FF0000E406E000E2D
:101E88003D6E000E3C6E000E0D6E000E0C6E0C507A
:101E98000D10D8B452EF0FF054EF0FF068EF0FF0B9
:101EA800030E0C180D10D8B45CEF0FF05EEF0FF0B6
:101EB80068EF0FF0060E0C180D10D8A466EF0FF09F
:101EC80068EF0FF081EF0FF0910E0C24D96E000E21
:101ED8000D20DA6EDF500A6E900E0C24D96E000EBB
:101EE8000D20DA6EDF500A0DF3500A24F00F026E4F
:101EF8003C5012EC15F03C4A3D2A0C4A0D2A0DBE06
:101F08008FEF0FF00D5009E1080E0C5CD8A08FEF91
:101F18000FF091EF0FF04BEF0FF041C002F03C5083
:101F280012EC15F03C4A3D2A06C002F03C5012EC77
:101F380015F03C4A3D2A402A1200819A818C818EF4
:101F480081B2A9EF0FF0ABEF0FF0AEEF0FF0010E7B
:101F580024EF10F081B4B3EF0FF0B5EF0FF0B8EF46
:101F68000FF0040E24EF10F081B6BDEF0FF0BFEFB5
:101F78000FF0C2EF0FF0070E24EF10F081B8C7EF93
:101F88000FF0C9EF0FF0CCEF0FF00A0E24EF10F0AE
:101F9800818A819C818E81B2D4EF0FF0D6EF0FF049
:101FA800D9EF0FF0020E24EF10F081B4DEEF0FF03E
:101FB800E0EF0FF0E3EF0FF0050E24EF10F081B61D
:101FC800E8EF0FF0EAEF0FF0EDEF0FF0080E24EF57
:101FD80010F081B8F2EF0FF0F4EF0FF0F7EF0FF019
:101FE8000B0E24EF10F0818A818C819E819E81B234
:101FF80000EF10F002EF10F005EF10F0030E24EFE1
:1020080010F081B40AEF10F00CEF10F00FEF10F0A1
:10201800060E24EF10F081B614EF10F016EF10F052
:1020280019EF10F0090E24EF10F081B81EEF10F030
:1020380020EF10F023EF10F00C0E24EF10F0FF0E3D
:1020480012002A342B34316E3150D8A42EEF10F000
:1020580030EF10F03AEF10F0000E286E000E296EE7
:10206800000E2A6E000E2B6EA7EF10F028C02CF081
:1020780029C02DF02AC02EF02BC02FF0200E4AEFD9
:1020880010F0D8902F322E322D322C32E82E45EF18
:1020980010F02C50306E2A8EFF0E2816FF0E2916CF
:1020A800FF0E2A16000E2B16960E315E31BE61EF1A
:1020B80010F05FEF10F077EF10F03150800A970FB3
:1020C800D8B069EF10F06BEF10F06DEF10F030EF53
:1020D80010F0D8902B322A3229322832313E6DEF57
:1020E80010F08FEF10F01F0E31647DEF10F07FEFCE
:1020F80010F087EF10F030EF10F0D890283629361E
:102108002A362B3631063150D8A48DEF10F08FEFD8
:1021180010F081EF10F03050D8B495EF10F097EF31
:1021280010F09FEF10F02B1E2A1E291E286C000E9F
:1021380029222A222B2228C028F029C029F02AC0C7
:102148002AF02BC02BF012000600F2A4AEEF10F01C
:10215800B0EF10F014EF11F0080ED624D66E000E72
:10216800D720D76E0001C24BC32B720EC21907E1EC
:10217800020EC319D8A4C3EF10F0C5EF10F0D4EFC6
:1021880010F05850D8B4CBEF10F0CEEF10F0010E8D
:10219800CFEF10F0000E586E000EC36F000EC26F26
:1021A800010EB427000EB523B623B723360EB41993
:1021B80009E10C0EB519B611B711D8A4E6EF10F065
:1021C800E8EF10F0EAEF10F0010E506E3E0EB41971
:1021D80009E1490EB519B611B711D8A4F6EF10F0F8
:1021E800F8EF10F0FAEF10F0010E4F6EF80EB41978
:1021F8000AE1240EB51907E1B605B711D8A407EF0F
:1022080011F009EF11F013EF11F0010E4E6E000EF0
:10221800B46F000EB56F000EB66F000EB76FF29474
:102228005A9211001450D8B41CEF11F01EEF11F09F
:1022380058EF11F0800E0F6E2A0E13EC16F01350A3
:10224800020DF3CF15F0F4CF16F015501124D96E06
:1022580016501220DA6EDECF03F0DDCF04F0810EC7
:10226800056EAFEC13F0C00E0F6E200E13EC16F0D7
:102278001350156E166AD890153616361550112457
:10228800176E16501220186E020E1724D96E000E03
:102298001820DA6EDECF03F0DDCF04F0C10E056E34
:1022A800AFEC13F078EF11F0C00E0F6E2A0E13EC9E
:1022B80016F0800E0F6E200E13EC16F01350020D60
:1022C800F3CF15F0F4CF16F015501124D96E16502F
:1022D8001220DA6EDECF03F0DDCF04F0810E056E3A
:1022E800AFEC13F03CEF11F01200000E0C6E0ABEBA
:1022F80082EF11F080EF11F088EF11F0096C0A1EDF
:10230800D8B00A2A010E0C6E08BE8FEF11F08DEFBF
:1023180011F095EF11F0076C081ED8B0082A010ECD
:102328000C1A000E0E6E000E0D6E09500A10D8B46D
:10233800A0EF11F0A2EF11F0CAEF11F0010E0B6E31
:10234800AAEF11F0D89009360A360B2A0AAEAFEF79
:1023580011F0B1EF11F0A6EF11F0D8900D360E364E
:102368000950075C0A500858D8A0BDEF11F0BFEF1C
:1023780011F0C4EF11F00950075E0A50085A0D8099
:10238800D8900A3209320B2EB1EF11F00C50D8B4A4
:10239800D0EF11F0D2EF11F0D6EF11F00D6C0E1E48
:1023A800D8B00E2A0DC007F00EC008F01200000EBB
:1023B800066E02BEE4EF11F0E2EF11F0EAEF11F061
:1023C800016C021ED8B0022A010E066E04BEF1EF9F
:1023D80011F0EFEF11F0F5EF11F0036C041ED8B017
:1023E800042A03500410D8B4FCEF11F0FEEF11F0EA
:1023F80022EF12F0010E056E06EF12F0D8900336A8
:102408000436052A04AE0BEF12F00DEF12F002EFBE
:1024180012F00350015C04500258D8A016EF12F0D5
:1024280018EF12F01CEF12F00350015E0450025A2C
:10243800D89004320332052E0DEF12F00650D8B4AE
:1024480028EF12F02AEF12F02EEF12F0016C021EA4
:10245800D8B0022A01C001F002C002F01200730EC7
:10246800036E2E0E046E800E056EAFEC13F0840E14
:10247800036E2E0E046EC00E056EAFEC13F0000E48
:10248800506E000ED76E060ED66EF294000E000146
:10249800B46F000EB56F000EB66F000EB76FF28AFC
:1024A8005050D8B45AEF12F05CEF12F054EF12F01B
:1024B800F29A000E506E000E586E000ED76E060E81
:1024C800D66EF294000E0001C36F000EC26F000EAC
:1024D800B46F000EB56F000EB66F000EB76F000E2A
:1024E800026E330E12EC15F01200A60E036E2E0EBD
:1024F800046E800E056EAFEC13F0840E036E2E0E84
:10250800046EC00E056EAFEC13F049EC0DF0000E32
:10251800506E000ED76E060ED66EF294000E0001B5
:10252800B46F000EB56F000EB66F000EB76FF28A6B
:102538005050D8B4A2EF12F0A4EF12F09CEF12F0B2
:10254800F29A000E506E000E586E000ED76E060EF0
:10255800D66EF294000E0001C36F000EC26F000E1B
:10256800B46F000EB56F000EB66F000EB76F120095
:10257800020E9FEC15F0396E010E9FEC15F03A6EC5
:10258800000E9FEC15F03B6E39ACCDEF12F0CFEF9B
:1025980012F0DBEF12F039380F0B010B300F00018E
:1025A800906F39500F0B300F916FE5EF12F03938FB
:1025B8000F0B030B300F0001906F39500F0B300FCA
:1025C800916F3A0E926F3A380F0B0F0B300F936FD3
:1025D8003A500F0B300F946F3A0E956F3B380F0B34
:1025E8000F0B300F966F3B500F0B300F976F000E8D
:1025F800986F120012BE0CEF13F0125007E1630E31
:10260800115CD8B00AEF13F00CEF13F02EEF13F0B3
:10261800CD0E0F6E11C007F012C008F0000E0A6E42
:102628000A0E096E79EC11F00750300F13EC16F012
:10263800CE0E0F6E11C001F012C002F0000E046E33
:102648000A0E036EDBEC11F00150300F13EC16F09C
:1026580038EF13F0CD0E0F6E390E13EC16F0CE0EC8
:102668000F6E390E13EC16F0CF0E0F6E200E13EC12
:1026780016F01200016E0104D8A445EF13F047EFDD
:1026880013F06BEF13F0A1EC0FF0516E5128D8B492
:1026980050EF13F052EF13F05FEF13F05950D8B426
:1026A80058EF13F05AEF13F05FEF13F0000E596E66
:1026B800515078EF13F05128D8A465EF13F067EF65
:1026C80013F077EF13F0010E596E77EF13F0015006
:1026D800D8A471EF13F073EF13F077EF13F0A1ECB8
:1026E8000FF078EF13F0FF0E12007FEF13F0014A9E
:1026F800022A034A042A03C0D9FF04C0DAFF01C032
:10270800E1FF02C0E2FFDE50E618D8A48EEF13F016
:1027180090EF13F09CEF13F001C0D9FF02C0DAFF6D
:10272800DF50D8A49AEF13F09CEF13F07BEF13F06F
:1027380001C0D9FF02C0DAFFDF50056E03C0D9FF20
:1027480004C0DAFFDF50066E0650055C016E026AAF
:10275800D8A002061200000E016E055052EC15F0CA
:10276800CCEF13F0010E016E03C0F6FF04C0F7FFB3
:10277800F86A050EF76403D00800F55005D0F6CFC7
:10278800E9FFF7CFEAFFEF5052EC15F0034A042AAD
:1027980003C0F6FF04C0F7FFF86A050EF76403D01C
:1027A8000800F55005D0F6CFE9FFF7CFEAFFEF5064
:1027B8000009D8A4E2EF13F0E4EF13F0B6EF13F03A
:1027C8001200460EF66E290EF76E000EF86E00EE39
:1027D80060F010EE4CF00900F5CFEEFFE550E15047
:1027E800FAE1D80EF66E2C0EF76E000EF86E00EEBB
:1027F80053F010EE07F00900F5CFEEFFE550E15079
:10280800FAE100EEACF02C0EEE6AE806FDE100EE0F
:1028180035F01E0EEE6AE806FDE15A905A92000E57
:10282800F86E0001C9EF14F0340E8AEC15F0300F81
:1028380004C0D9FF05C0DAFFDF6E20EE01F00450B6
:10284800D9260550DA22350E8AEC15F0300FDF6EE6
:1028580020EE02F00450D9260550DA22360E8AEC12
:1028680015F0300FDF6E20EE03F00450D926055026
:10287800DA22370E8AEC15F0300FDF6E20EE04F006
:102888000450D9260550DA22DF6A120060EF14F0EE
:1028980002C0F6FF03C0F7FFF86A050EF76403D01D
:1028A8000800F55005D0F6CFE9FFF7CFEAFFEF5063
:1028B8002AEC16F0024A032A02C0F6FF03C0F7FF0B
:1028C800F86A050EF76403D00800F55005D0F6CF76
:1028D800E9FFF7CFEAFFEF500009D8A476EF14F02C
:1028E80078EF14F04CEF14F01200000E9FEC15F086
:1028F800046E800E026E000EF8EC15F0010E9FECCF
:1029080015F0046E010E026E010EF8EC15F0020EC1
:102918009FEC15F0046E230E026E020EF8EC15F013
:10292800930E026E070EF8EC15F0000E9FEC15F0F2
:10293800046E010E026E000EF8EC15F01200000095
:1029480005000A000F00140019001E0023002800CB
:102958002D00F62FF92FF32FE72FEA2FED2FF02F69
:10296800E42F88134F2F6F2F5F2F3F2F8F2F30307B
:102978003A30303A3030000020202020000020205B
:1029880020200000202020200000C7EC15F0000EB9
:10299800026E340E12EC15F0000E026E350E12ECBB
:1029A80015F0000E026E360E12EC15F0000E026ED7
:1029B800370E12EC15F0000E026E330E12EC15F005
:1029C800010E3EEC13F0526E5250AAEC0AF0E4EFFE
:1029D80014F007EF00F0076E07C003F0D890033635
:1029E800D8900336C250C30B0310C26EC282C2B263
:1029F80000EF15F002EF15F0FBEF14F0C350C4CF51
:102A080003F0046A03C004F0036A0310056E04505F
:102A1800066E05C001F006C002F01200056E60ECFB
:102A280016F0A00E50EC16F0055050EC16F00250BF
:102A380050EC16F05CEC16F00B0E046EB80E036E3C
:102A48000306D8A00406032806E10428D8A42FEF1B
:102A580015F031EF15F024EF15F0120003C005F062
:102A680004C006F001C007F002C008F005C0F6FF78
:102A780006C0F7FF054A062A07C0D9FF08C0DAFFD3
:102A8800074A082A0800F5CFDFFFDF50D8A44FEF28
:102A980015F051EF15F03AEF15F01200026E01B083
:102AA80058EF15F05BEF15F082825CEF15F082921B
:102AB80002C083FF82848294958E8280829282846F
:102AC800829483BE6AEF15F06CEF15F063EF15F092
:102AD8008290959E1200000E956E9450F80B946E9D
:102AE8008290000E016E020E52EC15F0000E016E7F
:102AF800380E52EC15F0000E016E0C0E52EC15F06B
:102B0800000E016E010E52EC15F01200026E60EC20
:102B180016F0A00E50EC16F0025050EC16F064ECD3
:102B280016F0A10E50EC16F056EC16F0036E5CECA5
:102B380016F003501200026E60EC16F0D00E50EC46
:102B480016F0025050EC16F064EC16F0D10E50EC72
:102B580016F056EC16F0036E5CEC16F003501200FB
:102B680011C003F012C004F0C90E056EAFEC13F0EB
:102B7800CB0E0F6E200E13EC16F0CC0E0F6E200E3F
:102B880013EC16F012003EEC16F06FEC15F007ECA3
:102B980016F0D8EC15F01FEC16F079EC14F035ECC3
:102BA80016F0F28CF28E1200C08EC09AC088C096C1
:102BB800C090C082C094C292C19AC198000EC46EDF
:102BC800000EC36EC2801200BCEC12F0900E036EB1
:102BD800000E046EC00E056EAFEC13F0C80E0F6E3B
:102BE800200E13EC16F01200036E60EC16F0D00EF7
:102BF80050EC16F0035050EC16F0025050EC16F062
:102C08005CEC16F01200D59A000ED76E060ED66E42
:102C1800D596D590D592D584F294F29A1200106E7A
:102C2800000E016E0F5052EC15F0010E016E10509F
:102C380052EC15F0120094869488280EC66E310E58
:102C4800C86EC79CC78E9E96A1961200016E9EA85C
:102C580030EF16F032EF16F02BEF16F001C0ADFF93
:102C68001200948E949CAC84AB8EAB88810EAF6EB0
:102C78009D8A12000F0EC16E1E0E936EF19E81503A
:102C8800E009816E12009EA64CEF16F04EEF16F08A
:102C980047EF16F09E961200016E01C0C9FF47EC7F
:102CA80016F0120068EC16F070EC16F0C95012001D
:102CB800C58447EC16F01200C58047EC16F01200E8
:102CC800C58247EC16F01200C58647EC16F01200D4
:072CD8000300010178010176
:062CE000C58AC588120040
:102E2E0000202054494D4520202045562020535047
:102E3E0020002020202020454D50545920202020B5
:102E4E00202000202020205345542054494D452059
:102E5E00202020002020202056494557204C4F4747
:102E6E002020202000202020434C45415220204C81
:102E7E004F472020200020202053554343455353D5
:102E8E0046554C202020002020454E5445524544A6
:102E9E0020505357442020002020444F574E4C4F73
:102EAE004144204C4F47202000202052452D454EB6
:102EBE00544552205053572020002059203D203594
:102ECE00206F72204E203D2036200020434F4E466C
:102EDE0049524D204348414E4745200020444F451E
:102EEE0053204E4F54204D415443482000434841F7
:102EFE004E4147452050415353574F524400415481
:102F0E0054454D5054204641494C454420200059CB
:102F1E004F552041524520424C4F434B45442000D3
:102F2E0020454E5445522050415353574F52442042
:102F3E00005345542054494D452020202020202068
:102F4E000056494557204C4F472020202020202056
:102F5E0000434C454152204C4F472020202020203A
:102F6E0000444F574E4C4F4144204C4F4720202099
:102F7E0000202054494D45202020455620535020F6
:102F8E00004348414E47452050415353574F5244FA
:102F9E0000415454454D5054204C454654202D204C
:102FAE0000202054494D45202020455620535000E6
:102FBE00202020202020202020202020004C4F47A1
:102FCE0020454D505459005741495420464F5220E8
:102FDE00002053454300432000473100473200474D
:102FEE003300473400474E004F4E004752000A0D43
:022FFE000000D1
:020000040020DA
:08000000FFFFFFFFFFFFFFFF00
:020000040030CA
:0E000000FF071F1FFF8285FF0FC00FE00F409C
:00000001FF
